{
  "abi": [
    {
      "inputs": [
        {
          "internalType": "contract IPostagePriceModule",
          "name": "_postagePriceModule",
          "type": "address"
        },
        {
          "internalType": "bytes",
          "name": "_encryptionPubKey",
          "type": "bytes"
        }
      ],
      "stateMutability": "nonpayable",
      "type": "constructor"
    },
    {
      "inputs": [
        {
          "internalType": "uint256",
          "name": "postageSent",
          "type": "uint256"
        },
        {
          "internalType": "uint256",
          "name": "postageRequired",
          "type": "uint256"
        }
      ],
      "name": "InsufficentPostagePayment",
      "type": "error"
    },
    {
      "inputs": [],
      "name": "Paused",
      "type": "error"
    },
    {
      "inputs": [
        {
          "internalType": "address",
          "name": "to",
          "type": "address"
        }
      ],
      "name": "RefundFailed",
      "type": "error"
    },
    {
      "anonymous": false,
      "inputs": [
        {
          "indexed": false,
          "internalType": "string",
          "name": "addressLine1",
          "type": "string"
        },
        {
          "indexed": false,
          "internalType": "string",
          "name": "addressLine2",
          "type": "string"
        },
        {
          "indexed": false,
          "internalType": "string",
          "name": "city",
          "type": "string"
        },
        {
          "indexed": false,
          "internalType": "string",
          "name": "countryCode",
          "type": "string"
        },
        {
          "indexed": false,
          "internalType": "string",
          "name": "postalOrZip",
          "type": "string"
        },
        {
          "indexed": false,
          "internalType": "string",
          "name": "name",
          "type": "string"
        },
        {
          "indexed": false,
          "internalType": "string",
          "name": "msgHtml",
          "type": "string"
        },
        {
          "indexed": false,
          "internalType": "address",
          "name": "sender",
          "type": "address"
        },
        {
          "indexed": false,
          "internalType": "bool",
          "name": "addressEncrypted",
          "type": "bool"
        },
        {
          "indexed": false,
          "internalType": "bool",
          "name": "msgEncrypted",
          "type": "bool"
        },
        {
          "indexed": false,
          "internalType": "bytes2",
          "name": "encryptionPubKey",
          "type": "bytes2"
        }
      ],
      "name": "MailReceived",
      "type": "event"
    },
    {
      "anonymous": false,
      "inputs": [
        {
          "indexed": true,
          "internalType": "address",
          "name": "previousOwner",
          "type": "address"
        },
        {
          "indexed": true,
          "internalType": "address",
          "name": "newOwner",
          "type": "address"
        }
      ],
      "name": "OwnershipTransferred",
      "type": "event"
    },
    {
      "inputs": [],
      "name": "encryptionPubKey",
      "outputs": [
        {
          "internalType": "bytes",
          "name": "",
          "type": "bytes"
        }
      ],
      "stateMutability": "view",
      "type": "function"
    },
    {
      "inputs": [],
      "name": "getPostageWei",
      "outputs": [
        {
          "internalType": "uint256",
          "name": "",
          "type": "uint256"
        }
      ],
      "stateMutability": "view",
      "type": "function"
    },
    {
      "inputs": [],
      "name": "owner",
      "outputs": [
        {
          "internalType": "address",
          "name": "",
          "type": "address"
        }
      ],
      "stateMutability": "view",
      "type": "function"
    },
    {
      "inputs": [],
      "name": "paused",
      "outputs": [
        {
          "internalType": "bool",
          "name": "",
          "type": "bool"
        }
      ],
      "stateMutability": "view",
      "type": "function"
    },
    {
      "inputs": [],
      "name": "postagePriceModule",
      "outputs": [
        {
          "internalType": "contract IPostagePriceModule",
          "name": "",
          "type": "address"
        }
      ],
      "stateMutability": "view",
      "type": "function"
    },
    {
      "inputs": [],
      "name": "renounceOwnership",
      "outputs": [],
      "stateMutability": "nonpayable",
      "type": "function"
    },
    {
      "inputs": [
        {
          "components": [
            {
              "internalType": "string",
              "name": "addressLine1",
              "type": "string"
            },
            {
              "internalType": "string",
              "name": "addressLine2",
              "type": "string"
            },
            {
              "internalType": "string",
              "name": "city",
              "type": "string"
            },
            {
              "internalType": "string",
              "name": "countryCode",
              "type": "string"
            },
            {
              "internalType": "string",
              "name": "postalOrZip",
              "type": "string"
            },
            {
              "internalType": "string",
              "name": "name",
              "type": "string"
            }
          ],
          "internalType": "struct EthMail.PostalAddress",
          "name": "postalAddress",
          "type": "tuple"
        },
        {
          "internalType": "string",
          "name": "msgHtml",
          "type": "string"
        },
        {
          "internalType": "bool",
          "name": "addressEncrypted",
          "type": "bool"
        },
        {
          "internalType": "bool",
          "name": "msgEncrypted",
          "type": "bool"
        }
      ],
      "name": "sendEncryptedMail",
      "outputs": [],
      "stateMutability": "payable",
      "type": "function"
    },
    {
      "inputs": [
        {
          "components": [
            {
              "internalType": "string",
              "name": "addressLine1",
              "type": "string"
            },
            {
              "internalType": "string",
              "name": "addressLine2",
              "type": "string"
            },
            {
              "internalType": "string",
              "name": "city",
              "type": "string"
            },
            {
              "internalType": "string",
              "name": "countryCode",
              "type": "string"
            },
            {
              "internalType": "string",
              "name": "postalOrZip",
              "type": "string"
            },
            {
              "internalType": "string",
              "name": "name",
              "type": "string"
            }
          ],
          "internalType": "struct EthMail.PostalAddress",
          "name": "postalAddress",
          "type": "tuple"
        },
        {
          "internalType": "string",
          "name": "msgHtml",
          "type": "string"
        }
      ],
      "name": "sendMail",
      "outputs": [],
      "stateMutability": "payable",
      "type": "function"
    },
    {
      "inputs": [],
      "name": "togglePause",
      "outputs": [],
      "stateMutability": "nonpayable",
      "type": "function"
    },
    {
      "inputs": [
        {
          "internalType": "address",
          "name": "newOwner",
          "type": "address"
        }
      ],
      "name": "transferOwnership",
      "outputs": [],
      "stateMutability": "nonpayable",
      "type": "function"
    },
    {
      "inputs": [
        {
          "internalType": "bytes",
          "name": "newEncryptionPubKey",
          "type": "bytes"
        }
      ],
      "name": "updateEncryptionPubKey",
      "outputs": [],
      "stateMutability": "nonpayable",
      "type": "function"
    },
    {
      "inputs": [
        {
          "internalType": "contract IPostagePriceModule",
          "name": "newPostagePriceModule",
          "type": "address"
        }
      ],
      "name": "updatePostagePriceModule",
      "outputs": [],
      "stateMutability": "nonpayable",
      "type": "function"
    }
  ],
  "bytecode": {
    "object": "0x6080604052346200027c5762000f34803803806200001d8162000281565b9283398101906040818303126200027c5780516001600160a01b0390818116908190036200027c576020938484015160018060401b03948582116200027c570194601f928284880112156200027c5786518681116200025157601f19976200008b8287018a16850162000281565b948286528483830101116200027c57839060005b838110620002675750506000918501015260005460018060a01b03199533878316176000553391167f8be0079c531659141344cd1fd0a4f28419497f9722a3daafe3b4186f6b6457e0600080a3600194855416178455815194851162000251576002548481811c9116801562000246575b828210146200023057838111620001e4575b5080928511600114620001795750839450908392916000946200016d575b50501b916000199060031b1c1916176002555b60ff1960035416600355604051610c8c9081620002a88239f35b01519250388062000140565b929484908116600260005284600020946000905b88838310620001c95750505010620001af575b505050811b0160025562000153565b015160001960f88460031b161c19169055388080620001a0565b8587015188559096019594850194879350908101906200018d565b6002600052816000208480880160051c82019284891062000226575b0160051c019085905b8281106200021957505062000122565b6000815501859062000209565b9250819262000200565b634e487b7160e01b600052602260045260246000fd5b90607f169062000110565b634e487b7160e01b600052604160045260246000fd5b8181018301518782018401528592016200009f565b600080fd5b6040519190601f01601f191682016001600160401b03811183821017620002515760405256fe6101008060405260048036101561001557600080fd5b600091823560e01c908162d5edc71461078c575080630d9d37f7146105e057806323ed8f4a146104485780635c975abb14610425578063715018a6146103cb57806374604f47146102c85780638da5cb5b146102a15780639aa2eff414610259578063a6a8b4ce146101cb578063a8a10caf146101a2578063c4ae3168146101705763f2fde38b146100a657600080fd5b3461016c57602036600319011261016c576001600160a01b0381358181169290839003610168576100d5610a8c565b8215610115575082546001600160a01b0319811683178455167f8be0079c531659141344cd1fd0a4f28419497f9722a3daafe3b4186f6b6457e08380a380f35b60849060206040519162461bcd60e51b8352820152602660248201527f4f776e61626c653a206e6577206f776e657220697320746865207a65726f206160448201526564647265737360d01b6064820152fd5b8380fd5b5080fd5b823461019f578060031936011261019f57610189610a8c565b60035460ff80821615169060ff19161760035580f35b80fd5b823461019f578060031936011261019f576001546040516001600160a01b039091168152602090f35b503461016c578160031936011261016c576001546040516353545a6760e11b81529160209183919082906001600160a01b03165afa90811561024e578291610219575b602082604051908152f35b90506020813d8211610246575b8161023360209383610a1a565b8101031261016c5760209150513861020e565b3d9150610226565b6040513d84823e3d90fd5b503461016c57602036600319011261016c57356001600160a01b0381169081900361016c57610286610a8c565b6bffffffffffffffffffffffff60a01b600154161760015580f35b823461019f578060031936011261019f57546040516001600160a01b039091168152602090f35b823461019f578060031936011261019f5760405160025481836102ea83610a52565b808352926001908181169081156103a9575060011461035e575b5061031192500382610a1a565b60405180926020908183528351918281850152815b83811061034757505060408094508284010152601f80199101168101030190f35b808601820151878201604001528694508101610326565b60028652859150600080516020610c378339815191525b84831061038e5750610311935050810160200185610304565b81935090816020925483858901015201910190918492610375565b90506020925061031194915060ff191682840152151560051b82010185610304565b823461019f578060031936011261019f576103e4610a8c565b80546001600160a01b03198116825581906001600160a01b03167f8be0079c531659141344cd1fd0a4f28419497f9722a3daafe3b4186f6b6457e08280a380f35b823461019f578060031936011261019f57602060ff600354166040519015158152f35b50600319906040368301126105dc5780359067ffffffffffffffff8083116105d85760c08383019484360301126105d8576024359081116105d85761049090369083016109e7565b909160ff600354166105c957506104a5610b38565b6104af8480610ae4565b939094602482016104c09082610ae4565b9290916104d06044830182610ae4565b906104de6064850184610ae4565b919092608486016104ef9086610ae4565b95909660a4016104fe91610ae4565b9790986040519d8e9d8e61016090818152019061051a92610b17565b908d808303906020015261052d92610b17565b908b820360408d015261053f92610b17565b9089820360608b015261055192610b17565b90878203608089015261056392610b17565b9085820360a087015261057592610b17565b9083820360c085015261058792610b17565b3360e0830152836101008301528361012083015283610140830152037fc3da0e0622e4c3263466b667795c277f400714818cf5b613e0b8a7ed328610a291a180f35b6040516313d0ff5960e31b8152fd5b8480fd5b8280fd5b50903461019f5760208060031936011261016c57823567ffffffffffffffff9182821161016857366023830112156101685781850135948386116107755760405195601f1993610637601f83018616850189610a1a565b8188523660248383010111610788578187926024869301838b01378801015261065e610a8c565b85519384116107755750610673600254610a52565b601f8111610725575b508091601f84116001146106b957505082938293926106ae575b50508160011b916000199060031b1c19161760025580f35b015190503880610696565b60028552831694600080516020610c37833981519152929185905b87821061070d5750508360019596106106f4575b505050811b0160025580f35b015160001960f88460031b161c191690553880806106e8565b806001859682949686015181550195019301906106d4565b60028552600080516020610c37833981519152601f850160051c81019183861061076b575b601f0160051c01905b818110610760575061067c565b858155600101610753565b909150819061074a565b634e487b7160e01b855260419052602484fd5b8680fd5b9050600319916080833601126101685780359267ffffffffffffffff8085116109e35760c08584019286360301126109e3576024359081116109e3576107d590369084016109e7565b9190926044358060e05280151503610788576064359485151586036109df5760ff600354166109d35750509085929161080c610b38565b6108168180610ae4565b919060c05260a487608461082d6024830185610ae4565b60a052936108686108416044850183610ae4565b91909261085e6108546064880183610ae4565b9690970182610ae4565b97909e0190610ae4565b969097610876600254610a52565b809c601f600292116109bd575b50546001600160f01b031981169c906002821061099d575b5050946109419461091f7fc3da0e0622e4c3263466b667795c277f400714818cf5b613e0b8a7ed328610a29f956109639d9c9b999561090e610930966108f96109529e9c60405180608052610160809152608051019060c051610b17565b90608051602081840391015260a05190610b17565b916080516040818503910152610b17565b916080516060818503910152610b17565b916080516080818503910152610b17565b9160805160a0818503910152610b17565b9160805160c0818503910152610b17565b913360e0608051015260e051151561010060805101521515610120608051015261ffff60f01b16610140608051015260805180910390a180f35b6001600160f01b031960029290920360031b82901b16169b50388061089b565b52600080516020610c378339815191528f610883565b6313d0ff5960e31b8152fd5b8780fd5b8580fd5b9181601f84011215610a155782359167ffffffffffffffff8311610a155760208381860195010111610a1557565b600080fd5b90601f8019910116810190811067ffffffffffffffff821117610a3c57604052565b634e487b7160e01b600052604160045260246000fd5b90600182811c92168015610a82575b6020831014610a6c57565b634e487b7160e01b600052602260045260246000fd5b91607f1691610a61565b6000546001600160a01b03163303610aa057565b606460405162461bcd60e51b815260206004820152602060248201527f4f776e61626c653a2063616c6c6572206973206e6f7420746865206f776e65726044820152fd5b903590601e1981360301821215610a15570180359067ffffffffffffffff8211610a1557602001918136038313610a1557565b908060209392818452848401376000828201840152601f01601f1916010190565b6001546040516353545a6760e11b815290602090829060049082906001600160a01b03165afa908115610c2a57600091610bf9575b50803410610bdb57803411610b7f5750565b80340390348211610bc5576000808093819382903414610bbc575b3390f115610ba457565b604051631322dee160e11b8152336004820152602490fd5b506108fc610b9a565b634e487b7160e01b600052601160045260246000fd5b604490604051906302cd912d60e11b82523460048301526024820152fd5b906020823d8211610c22575b81610c1260209383610a1a565b8101031261019f57505138610b6d565b3d9150610c05565b6040513d6000823e3d90fdfe405787fa12a823e0f2b7631cc41b3ba8828b3321ca811111fa75cd3aa3bb5acea2646970667358221220f5ec05c577e32778e2b806e63fd0e0e4ed7cc1d71843bfe51ea83a6dde735a1164736f6c63430008110033",
    "linkReferences": {}
  },
  "methodIdentifiers": {
    "encryptionPubKey()": "74604f47",
    "getPostageWei()": "a6a8b4ce",
    "owner()": "8da5cb5b",
    "paused()": "5c975abb",
    "postagePriceModule()": "a8a10caf",
    "renounceOwnership()": "715018a6",
    "sendEncryptedMail((string,string,string,string,string,string),string,bool,bool)": "00d5edc7",
    "sendMail((string,string,string,string,string,string),string)": "23ed8f4a",
    "togglePause()": "c4ae3168",
    "transferOwnership(address)": "f2fde38b",
    "updateEncryptionPubKey(bytes)": "0d9d37f7",
    "updatePostagePriceModule(address)": "9aa2eff4"
  },
  "id": 32
}